:1000000019C055C127C026C025C024C023C022C0A6
:1000100021C020C01FC0A6C01DC01CC01BC01AC06C
:1000200019C018C0C4C016C015C015C113C012C075
:1000300011C010C011241FBECFEFD4E0DEBFCDBF72
:1000400021E0A0E0B1E001C01D92A839B207E1F7BC
:100050005CD301C4D5CF80E480937C008CE880938E
:100060007A0010927B000895E7E0F1E0A5E3B1E0AB
:100070008BE191E0119211921D921D92E817F90700
:10008000C9F708952091070130910801232B71F0E1
:10009000E9E0F1E020E030E02F5F3F4F41915191E6
:1000A000452BD1F72A30310518F016C020E030E09A
:1000B000A901440F551FFA01E95FFE4F9183808328
:1000C000FA01EB5CFE4F71836083FA01E75BFE4F40
:1000D00011821082822F08958FEF089590931F014F
:1000E00080931E01089578943ED30F2EFBE1CF2E0E
:1000F000F1E0DF2EF02D0F2EF7E08F2EF1E09F2E96
:10010000F02D0F2EF9E4AF2EF1E0BF2EF02D0F2EC3
:10011000F5E36F2EF1E07F2EF02D8401E5017301F0
:10012000D801ED91FD918D01309759F028813981E9
:10013000D7018D919C912817390718F019821882E0
:1001400009952296B2E0EB0EF11C0C151D0541F746
:1001500080910201813009F71092020180E291E062
:10016000CCD0DBCF1F920F920FB60F9211242F939A
:100170003F938F939F93EF93FF93E9E4F1E02DE595
:1001800031E080819181019681939193E217F30789
:10019000C1F78AE080931B01FF91EF919F918F91AE
:1001A0003F912F910F900FBE0F901F9018951F92A7
:1001B0000F920FB60F9211242F933F934F935F939B
:1001C0006F937F938F939F93AF93BF93EF93FF931F
:1001D000E0910301F0E08091C600E05EFE4F808375
:1001E000E0910301F0E0E05EFE4F8081882341F062
:1001F000E0910301F0E0E05EFE4F80818D30A9F4D4
:10020000E0910301F0E0E05EFE4F108281E0809318
:100210000201109203018DE0B4D28EE3B2D280E2EB
:1002200091E0B7D28DE0ADD205C0809103018F5F20
:1002300080930301FF91EF91BF91AF919F918F91B7
:100240007F916F915F914F913F912F910F900FBED2
:100250000F901F9018951F920F920FB60F921124B6
:100260002F938F939F9380917800809306018091C4
:100270007900809334018091340190E0982F882791
:1002800090935F0180935E012091060180915E0151
:1002900090915F01822B90935F0180935E019F910B
:1002A0008F912F910F900FBE0F901F9018951F9256
:1002B0000F920FB60F9211248F939F93809100019C
:1002C00090910101019690930101809300019F910B
:1002D0008F910F900FBE0F901F901895519A84B177
:1002E000886184B985B1886185B9E9E6F0E08081EB
:1002F00082608083E89A17B808950895CF93DF93BA
:10030000CDB7DEB765970FB6F894DEBF0FBECDBF91
:1003100066E671E0CE01019659D260E671E0CE0149
:10032000019654D261E871E0CE0101964FD26AE89D
:1003300071E0CE0101964AD2CE0101962AD265968D
:100340000FB6F894DEBF0FBECDBFDF91CF910895F9
:1003500081E480937C00EAE7F0E080818064808320
:1003600080915E0190915F01909389018093880153
:10037000E6E6F1E0108211821282138214828091EB
:100380008801909189014AE0BF0132D280918801B1
:10039000909189010A97BCF480E390E3A0E3B0E078
:1003A00080938F0190939001A0939101B09392015B
:1003B00066E671E08FE891E009D26FE871E086E6C9
:1003C00091E00FD2089580918801909189010A9758
:1003D000DCF0809188019091890184369105A4F424
:1003E00080E390E3A0E080938F0190939001A0932D
:1003F000910166E671E08FE891E0E8D16FE871E085
:1004000086E691E0EED1089580918801909189016E
:1004100084369105BCF08091880190918901883ED5
:10042000934084F480E390E09093900180938F0157
:1004300066E671E08FE891E0C9D16FE871E086E689
:1004400091E0CFD1089582E480937C00EAE7F0E068
:1004500080818064808380915E0190915F019093A0
:100460006C0180936B01E0E6F1E010821182128250
:100470001382148280916B0190916C014AE0BF015C
:10048000B7D180916B0190916C010A97BCF480E325
:1004900090E3A0E3B0E080938F0190939001A0934C
:1004A0009101B093920160E671E08FE891E08ED106
:1004B0006FE871E080E691E094D1089580916B013E
:1004C00090916C010A97DCF080916B0190916C0126
:1004D00084369105A4F480E390E3A0E080938F013B
:1004E00090939001A093910160E671E08FE891E014
:1004F0006DD16FE871E080E691E073D1089580914D
:100500006B0190916C0184369105BCF080916B0178
:1005100090916C01883E934084F480E390E0909346
:10052000900180938F0160E671E08FE891E04ED1F9
:100530006FE871E080E691E054D1089580E4809303
:100540007C00EAE7F0E080818064808380915E0136
:1005500090915F019093870180938601EAE8F1E032
:1005600010821182128213821482809186019091EE
:1005700087014AE0BF013CD18091860190918701BB
:100580000A97BCF480E390E3A0E3B0E080938F018E
:1005900090939001A0939101B09392016AE871E069
:1005A0008FE891E013D16FE871E08AE891E019D10A
:1005B000089580918601909187010A97DCF08091DF
:1005C00086019091870184369105A4F480E390E33D
:1005D000A0E080938F0190939001A09391016AE82D
:1005E00071E08FE891E0F2D06FE871E08AE891E085
:1005F000F8D0089580918601909187018436910505
:10060000BCF08091860190918701883E934084F4EC
:1006100080E390E09093900180938F016AE871E00D
:100620008FE891E0D3D06FE871E08AE891E0D9D00B
:1006300008951DBA20910001309101014FE0429FC1
:10064000C001439F900D11249093050180930401F4
:10065000E1E8F1E0108211821282138214824AE0F2
:10066000BF01C6D080910401909105018A309105A7
:10067000BCF480E390E3A0E3B0E080938F0190931B
:100680009001A0939101B093920161E871E08FE82D
:1006900091E09CD06FE871E081E891E0A2D02FC09A
:1006A0009C012A5031092A353105A0F480E390E3FA
:1006B000A0E080938F0190939001A093910161E855
:1006C00071E08FE891E082D06FE871E081E891E01D
:1006D00088D015C0845691098438934080F480E313
:1006E00090E09093900180938F0161E871E08FE832
:1006F00091E06CD06FE871E081E891E072D01092E7
:10070000010110920001E89A0895E8DD50D0A3DCC1
:10071000ABDC68EE73E08EE791E0B4DC8093970188
:1007200068EC70E088EA91E0ADDC8093940168ECBD
:1007300070E083E292E0A6DC80936E0168EC70E0EA
:100740008EE992E09FDC8093700160ED77E089E1B3
:1007500093E098DC80936F01C6DC8DE791E0BEDC0E
:1007600080E090E00895E1E8F0E080818C60808393
:1007700081E080938800EFE6F0E0808182608083F2
:100780000895E0ECF0E0908195FFFDCF8093C600E6
:100790000895CF93DF93EC018881882329F0219677
:1007A000F0DF89918111FCCFDF91CF9108958CE02A
:1007B0008093C4001092C50082E28093C00088E953
:1007C0008093C10086E08093C2000895FB01DC01A4
:1007D0000D900020E9F7119701900D920020E1F7AC
:1007E0000895FB01DC0101900D920020E1F70895CE
:1007F000BB274A3031F4992322F4BDE290958195CC
:100800009F4F01C0BB27FB015527AA27880F991FBF
:10081000AA1FA41710F0A41B83955051B9F7A05D2F
:10082000AA3308F0A95DA193009779F7B111B193AC
:100830001192CB0100C0DC01FC01672F719177237D
:10084000E1F7329704C07C916D9370836291AE178B
:0A085000BF07C8F30895F894FFCF26
:00000001FF
