S02700004D65737572655F436F7572616E745F524556342E305F55534152545F494E542E737265633B
S113000019C028C027C026C025C024C023C022C0D0
S113001021C020C01FC0A6C01DC01CC01BC01AC068
S113002019C018C0C4C016C015C015C113C012C071
S113003011C010C011241FBECFEFD4E0DEBFCDBF6E
S113004021E0A0E0B1E001C01D92A638B207E1F7BB
S113005072D209C3D5CF80E480937C008CE880936E
S11300607A0010927B000895E3E0F1E0A1E3B1E0AF
S113007087E191E0119211921D921D92E817F90700
S1130080C9F708952091030130910401232B71F0E5
S1130090E5E0F1E020E030E02F5F3F4F41915191E6
S11300A0452BD1F72A30310518F016C020E030E096
S11300B0A901440F551FFA01ED5FFE4F9183808320
S11300C0FA01EF5CFE4F71836083FA01EB5BFE4F34
S11300D011821082822F08958FEF089590931B014F
S11300E080931A010895789446D20F2EF7E1CF2E0B
S11300F0F1E0DF2EF02D0F2EF3E08F2EF1E09F2E96
S1130100F02D0F2EF5E4AF2EF1E0BF2EF02D0F2EC3
S1130110F1E36F2EF1E07F2EF02D8401E5017301F0
S1130120D801ED91FD918D01309759F028813981E5
S1130130D7018D919C912817390718F019821882DC
S113014009952296B2E0EB0EF11C0C151D0541F742
S113015080910001813009F7109200018CE191E057
S1130160B5D0DBCF1F920F920FB60F9211242F93AD
S11301703F938F939F93EF93FF93E5E4F1E029E599
S113018031E080819181019681939193E217F30785
S1130190C1F78AE080931701FF91EF919F918F91AE
S11301A03F912F910F900FBE0F901F9018951F92A3
S11301B00F920FB60F9211242F933F934F935F9397
S11301C06F937F938F939F93AF93BF93EF93FF931B
S11301D0E0910101F0E08091C600E45EFE4F80836F
S11301E0E0910101F0E0E45EFE4F8081882341F05C
S11301F0E0910101F0E0E45EFE4F80818D30A9F4CE
S1130200E0910101F0E0E45EFE4F108281E0809312
S11302100001109201018DE0BCD18EE3BAD18CE1D2
S113022091E0BFD18DE0B5D105C0809101018F5F10
S113023080930101FF91EF91BF91AF919F918F91B5
S11302407F916F915F914F913F912F910F900FBECE
S11302500F901F9018951F920F920FB60F921124B2
S11302602F938F939F9380917800809302018091C4
S11302707900809330018091300190E0982F882795
S113028090935B0180935A012091020180915A015D
S113029090915B01822B90935B0180935A019F9113
S11302A08F912F910F900FBE0F901F901895519A18
S11302B084B1886184B985B1886185B9E9E6F0E0E3
S11302C0808182608083E89A17B8089508950F9317
S11302D01F93CF93DF93CDB7DEB72D970FB6F89466
S11302E0DEBF0FBECDBF85E590E09A83898362E6C9
S11302F071E08E010F5F1F4FC80170D1F8010190AA
S11303000020E9F731978BE399E4ADE4B0E0808312
S11303109183A283B3836CE571E0C8015FD1F801D6
S113032001900020E9F731978AE090E0918380837F
S1130330C80137D12D960FB6F894DEBF0FBECDBFDE
S1130340DF91CF911F910F91089581E480937C00F8
S1130350EAE7F0E080818064808380915A01909183
S11303605B0190937C0180937B01E2E6F1E01082D3
S1130370118212821382148280917B0190917C01FC
S11303804AE0BF013DD180917B0190917C010A97A5
S1130390BCF480E390E3A0E3B0E080937D0190930C
S11303A07E01A0937F01B093800162E671E08DE746
S11303B091E014D16DE771E082E691E01AD10895DD
S11303C080917B0190917C010B97DCF080917B0103
S11303D090917C0184369105A4F480E390E3A0E03D
S11303E080937D0190937E01A0937F0162E671E08A
S11303F08DE791E0F3D06DE771E082E691E0F9D00A
S1130400089580917B0190917C0185369105BCF023
S113041080917B0190917C01883E934084F480E339
S113042090E090937E0180937D0162E671E08DE718
S113043091E0D4D06DE771E082E691E0DAD00895DE
S113044080E480937C00EAE7F0E08081806480832C
S113045080915A0190915B019093680180936701A8
S1130460ECE5F1E0108211821282138214828091F1
S11304706701909168014AE0BF01C2D08091670191
S1130480909168010A97BCF480E390E3A0E3B0E0A4
S113049080937D0190937E01A0937F01B0938001AE
S11304A06CE571E08DE791E099D06DE771E08CE542
S11304B091E09FD0089580916701909168010B9716
S11304C0DCF0809167019091680184369105A4F471
S11304D080E390E3A0E080937D0190937E01A0935C
S11304E07F016CE571E08DE791E078D06DE771E014
S11304F08CE591E07ED00895809167019091680128
S113050085369105BCF08091670190916801883E21
S1130510934084F480E390E090937E0180937D0186
S11305206CE571E08DE791E059D06DE771E08CE501
S113053091E05FD00895BBDE42D08DDD95DD68EE9D
S113054073E087E691E09EDD8093850168EC70E0BE
S113055085EA91E097DD8093820168EC70E080E2A7
S113056092E090DD80936A01BEDD86E691E0B6DD1F
S113057080E090E00895E1E8F0E080818C60808381
S113058081E080938800EFE6F0E0808182608083E0
S11305900895E0ECF0E0908195FFFDCF8093C600D4
S11305A00895CF93DF93EC018881882329F0219665
S11305B0F0DF89918111FCCFDF91CF9108958CE018
S11305C08093C4001092C50082E28093C00088E941
S11305D08093C10086E08093C2000895FB01DC0192
S11305E00D900020E9F7119701900D920020E1F79A
S11305F00895FB01DC0101900D920020E1F70895BC
S1130600BB274A3031F4992322F4BDE290958195B9
S11306109F4F01C0BB27FB015527AA27880F991FAD
S1130620AA1FA41710F0A41B83955051B9F7A05D1D
S1130630AA3308F0A95DA193009779F7B111B1939A
S11306401192CB0100C0DC01FC01672F719177236B
S1130650E1F7329704C07C916D9370836291AE1779
S10D0660BF07C8F30895F894FFCF14
S9030000FC
