:1000000019C060C132C031C030C02FC02EC02DC059
:100010002CC02BC02AC0B1C028C027C026C025C014
:1000200024C023C0CFC021C020C020C11EC01DC01D
:100030001CC01BC011241FBECFEFD4E0DEBFCDBF5C
:1000400011E0A0E0B1E0EAEDF8E002C005900D9209
:10005000A630B107D9F721E0A6E0B1E001C01D92BA
:10006000AE39B207E1F791D336C4CACF80E48093AA
:100070007C008CE880937A0010927B000895EDE07C
:10008000F1E0ABE3B1E081E291E0119211921D92B7
:100090001D92E817F907C9F7089520910D013091D5
:1000A0000E01232B71F0EFE0F1E020E030E02F5F54
:1000B0003F4F41915191452BD1F72A30310518F02E
:1000C00016C020E030E0A901440F551FFA01E35F9C
:1000D000FE4F91838083FA01E55CFE4F718360835C
:1000E000FA01E15BFE4F11821082822F08958FEF9B
:1000F000089590932501809324010895789473D3F3
:100100000F2EF1E2CF2EF1E0DF2EF02D0F2EFDE0CD
:100110008F2EF1E09F2EF02D0F2EFFE4AF2EF1E099
:10012000BF2EF02D0F2EFBE36F2EF1E07F2EF02D72
:100130008401E5017301D801ED91FD918D013097A6
:1001400059F028813981D7018D919C912817390761
:1001500018F01982188209952296B2E0EB0EF11C74
:100160000C151D0541F780910801813009F71092A7
:10017000080186E291E0CCD0DBCF1F920F920FB640
:100180000F9211242F933F938F939F93EF93FF939D
:10019000EFE4F1E023E631E08081918101968193E3
:1001A0009193E217F307C1F78AE080932101FF9151
:1001B000EF919F918F913F912F910F900FBE0F90D4
:1001C0001F9018951F920F920FB60F9211242F9324
:1001D0003F934F935F936F937F938F939F93AF93CF
:1001E000BF93EF93FF93E0910901F0E08091C60087
:1001F000EA5DFE4F8083E0910901F0E0EA5DFE4F89
:100200008081882341F0E0910901F0E0EA5DFE4F32
:1002100080818D30A9F4E0910901F0E0EA5DFE4FA4
:10022000108281E080930801109209018DE0E9D2EB
:100230008EE3E7D286E291E0ECD28DE0E2D205C017
:10024000809109018F5F80930901FF91EF91BF9128
:10025000AF919F918F917F916F915F914F913F915E
:100260002F910F900FBE0F901F9018951F920F9215
:100270000FB60F9211242F938F939F938091780044
:1002800080930C018091790080933A0180913A012A
:1002900090E0982F882790936501809364012091C6
:1002A0000C018091640190916501822B909365010E
:1002B000809364019F918F912F910F900FBE0F90AB
:1002C0001F9018951F920F920FB60F9211248F93C3
:1002D0009F938091060190910701019690930701E9
:1002E000809306019F918F910F900FBE0F901F90EA
:1002F0001895519A84B1886184B985B1886185B9AE
:10030000E9E6F0E0808182608083E89A17B808957A
:1003100008950F931F93CF93DF93CDB7DEB7A197C7
:100320000FB6F894DEBF0FBECDBF85E590E09A838F
:1003300089836CE671E08E010F5F1F4FC80186D282
:10034000F80101900020E9F731978BE399E4ADE4DF
:10035000B0E080839183A283B38366E671E0C80135
:1003600075D2D8010D900020E9F7119785E0E0E003
:10037000F1E001900D928A95E1F767E871E0C8011C
:1003800065D2F80101900020E9F731978BE39EE4F4
:10039000ADE6B0E080839183A283B38360E971E02E
:1003A000C80154D2F80101900020E9F731978AE0A2
:1003B00090E091838083C8012CD2A1960FB6F89467
:1003C000DEBF0FBECDBFDF91CF911F910F9108957A
:1003D00081E480937C00EAE7F0E0808180648083A0
:1003E000809164019091650190938F0180938E01BB
:1003F000ECE6F1E010821182128213821482809165
:100400008E0190918F014AE0BF0132D280918E011E
:1004100090918F010A97BCF480E390E3A0E3B0E0F1
:100420008093950190939601A0939701B0939801C2
:100430006CE671E085E991E009D265E971E08CE64E
:1004400091E00FD2089580918E0190918F010B97CA
:10045000DCF080918E0190918F0184369105A4F497
:1004600080E390E3A0E08093950190939601A093A0
:1004700097016CE671E085E991E0E8D165E971E00A
:100480008CE691E0EED1089580918E0190918F01DC
:1004900085369105BCF080918E0190918F01883E48
:1004A000934084F480E390E09093960180939501CB
:1004B0006CE671E085E991E0C9D165E971E08CE60F
:1004C00091E0CFD1089582E480937C00EAE7F0E0E8
:1004D0008081806480838091640190916501909314
:1004E000720180937101E6E6F1E0108211821282BE
:1004F0001382148280917101909172014AE0BF01D0
:10050000B7D180917101909172010A97BCF480E398
:1005100090E3A0E3B0E08093950190939601A093BF
:100520009701B093980166E671E085E991E08ED17C
:1005300065E971E086E691E094D1089580917101BA
:10054000909172010B97DCF0809171019091720192
:1005500084369105A4F480E390E3A0E080939501B4
:1005600090939601A093970166E671E085E991E08A
:100570006DD165E971E086E691E073D108958091CF
:1005800071019091720185369105BCF080917101E5
:1005900090917201883E934084F480E390E09093C0
:1005A00096018093950166E671E085E991E04ED170
:1005B00065E971E086E691E054D1089580E4809386
:1005C0007C00EAE7F0E080818064808380916401B0
:1005D0009091650190938D0180938C01E0E9F1E0A9
:1005E0001082118212821382148280918C01909168
:1005F0008D014AE0BF013CD180918C0190918D0129
:100600000A97BCF480E390E3A0E3B0E08093950107
:1006100090939601A0939701B093980160E971E0DF
:1006200085E991E013D165E971E080E991E019D1A4
:10063000089580918C0190918D010B97DCF0809151
:100640008C0190918D0184369105A4F480E390E3B0
:10065000A0E08093950190939601A093970160E9A3
:1006600071E085E991E0F2D065E971E080E991E01F
:10067000F8D0089580918C0190918D018536910577
:10068000BCF080918C0190918D01883E934084F460
:1006900080E390E0909396018093950160E971E08A
:1006A00085E991E0D3D065E971E080E991E0D9D0A6
:1006B00008951DBA20910601309107014CE3429F35
:1006C000C001439F900D112490930B0180930A0168
:1006D000E7E8F1E0108211821282138214824AE06C
:1006E000BF01C6D080910A0190910B018A3091051B
:1006F000BCF480E390E3A0E3B0E080939501909395
:100700009601A0939701B093980167E871E085E99D
:1007100091E09CD065E971E087E891E0A2D02FC01C
:100720009C012B50310929353105A0F480E390E379
:10073000A0E08093950190939601A093970167E8BC
:1007400071E085E991E082D065E971E087E891E0A8
:1007500088D015C0855691098338934080F480E392
:1007600090E0909396018093950167E871E085E9A8
:1007700091E06CD065E971E087E891E072D0109269
:10078000070110920601E89A0895B3DD50D06EDC9F
:1007900076DC68EE73E089E891E07FDC80939D0170
:1007A00068EC70E088EE91E078DC80939A0168EC68
:1007B00070E083E692E071DC8093740168EC70E095
:1007C0008EED92E06ADC8093760160ED77E089E55A
:1007D00093E063DC8093750191DC88E891E089DC2B
:1007E00080E090E00895E1E8F0E080818C60808313
:1007F00081E080938800EFE6F0E080818260808372
:100800000895E0ECF0E0908195FFFDCF8093C60065
:100810000895CF93DF93EC018881882329F02196F6
:10082000F0DF89918111FCCFDF91CF9108958CE0A9
:100830008093C4001092C50082E28093C00088E9D2
:100840008093C10086E08093C2000895FB01DC0123
:100850000D900020E9F7119701900D920020E1F72B
:100860000895FB01DC0101900D920020E1F708954D
:10087000BB274A3031F4992322F4BDE2909581954B
:100880009F4F01C0BB27FB015527AA27880F991F3F
:10089000AA1FA41710F0A41B83955051B9F7A05DAF
:1008A000AA3308F0A95DA193009779F7B111B1932C
:1008B0001192CB0100C0DC01FC01672F71917723FD
:1008C000E1F7329704C07C916D9370836291AE170B
:0A08D000BF07C8F30895F894FFCFA6
:0608DA003B52504D0000EE
:00000001FF
